{
  "contractName": "TomatoMarket",
  "abi": [
    {
      "anonymous": false,
      "inputs": [
        {
          "indexed": false,
          "name": "message",
          "type": "string"
        }
      ],
      "name": "TomatoAdded",
      "type": "event",
      "signature": "0x8337155f98bedbe9df880a51899a134cca67d26eb1094d2b0ef63b09488a45d4"
    },
    {
      "constant": true,
      "inputs": [],
      "name": "getTomatoCount",
      "outputs": [
        {
          "name": "",
          "type": "uint8"
        }
      ],
      "payable": false,
      "stateMutability": "view",
      "type": "function",
      "signature": "0x2db95aa9"
    },
    {
      "constant": false,
      "inputs": [
        {
          "name": "displayName",
          "type": "string"
        },
        {
          "name": "description",
          "type": "string"
        },
        {
          "name": "price",
          "type": "uint8"
        },
        {
          "name": "status",
          "type": "uint8"
        },
        {
          "name": "photoHash",
          "type": "string"
        }
      ],
      "name": "addTomato",
      "outputs": [],
      "payable": false,
      "stateMutability": "nonpayable",
      "type": "function",
      "signature": "0x9115b484"
    },
    {
      "constant": true,
      "inputs": [
        {
          "name": "tomatoId",
          "type": "uint8"
        }
      ],
      "name": "getTomato",
      "outputs": [
        {
          "name": "displayName",
          "type": "string"
        },
        {
          "name": "description",
          "type": "string"
        },
        {
          "name": "price",
          "type": "uint8"
        },
        {
          "name": "photoHash",
          "type": "string"
        }
      ],
      "payable": false,
      "stateMutability": "view",
      "type": "function",
      "signature": "0xc8d9ebc4"
    }
  ],
  "bytecode": "0x608060405234801561001057600080fd5b50610a41806100206000396000f3fe608060405260043610610057576000357c0100000000000000000000000000000000000000000000000000000000900463ffffffff1680632db95aa91461005c5780639115b4841461008d578063c8d9ebc41461029d575b600080fd5b34801561006857600080fd5b50610071610439565b604051808260ff1660ff16815260200191505060405180910390f35b34801561009957600080fd5b5061029b600480360360a08110156100b057600080fd5b81019080803590602001906401000000008111156100cd57600080fd5b8201836020820111156100df57600080fd5b8035906020019184600183028401116401000000008311171561010157600080fd5b91908080601f016020809104026020016040519081016040528093929190818152602001838380828437600081840152601f19601f8201169050808301925050505050505091929192908035906020019064010000000081111561016457600080fd5b82018360208201111561017657600080fd5b8035906020019184600183028401116401000000008311171561019857600080fd5b91908080601f016020809104026020016040519081016040528093929190818152602001838380828437600081840152601f19601f820116905080830192505050505050509192919290803560ff169060200190929190803560ff1690602001909291908035906020019064010000000081111561021557600080fd5b82018360208201111561022757600080fd5b8035906020019184600183028401116401000000008311171561024957600080fd5b91908080601f016020809104026020016040519081016040528093929190818152602001838380828437600081840152601f19601f82011690508083019250505050505050919291929050505061044f565b005b3480156102a957600080fd5b506102d9600480360360208110156102c057600080fd5b81019080803560ff16906020019092919050505061067b565b6040518080602001806020018560ff1660ff16815260200180602001848103845288818151815260200191508051906020019080838360005b8381101561032d578082015181840152602081019050610312565b50505050905090810190601f16801561035a5780820380516001836020036101000a031916815260200191505b50848103835287818151815260200191508051906020019080838360005b83811015610393578082015181840152602081019050610378565b50505050905090810190601f1680156103c05780820380516001836020036101000a031916815260200191505b50848103825285818151815260200191508051906020019080838360005b838110156103f95780820151818401526020810190506103de565b50505050905090810190601f1680156104265780820380516001836020036101000a031916815260200191505b5097505050505050505060405180910390f35b60008060009054906101000a900460ff16905090565b60c0604051908101604052806000809054906101000a900460ff1660ff1681526020018681526020018581526020018460ff16815260200183600181111561049357fe5b815260200182815250600260008060009054906101000a900460ff1660ff16815260200190815260200160002060008201518160000160006101000a81548160ff021916908360ff16021790555060208201518160010190805190602001906104fd929190610928565b50604082015181600201908051906020019061051a929190610928565b5060608201518160030160006101000a81548160ff021916908360ff16021790555060808201518160030160016101000a81548160ff0219169083600181111561056057fe5b021790555060a0820151816004019080519060200190610581929190610928565b5090505060016000809054906101000a900460ff16908060018154018082558091505090600182039060005260206000209060209182820401919006909192909190916101000a81548160ff021916908360ff1602179055505060008081819054906101000a900460ff168092919060010191906101000a81548160ff021916908360ff160217905550507f8337155f98bedbe9df880a51899a134cca67d26eb1094d2b0ef63b09488a45d460405180806020018281038252600c8152602001807f546f6d61746f204164646564000000000000000000000000000000000000000081525060200191505060405180910390a15050505050565b6060806000606061068a6109a8565b600260008760ff16815260200190815260200160002060c060405190810160405290816000820160009054906101000a900460ff1660ff1660ff168152602001600182018054600181600116156101000203166002900480601f0160208091040260200160405190810160405280929190818152602001828054600181600116156101000203166002900480156107625780601f1061073757610100808354040283529160200191610762565b820191906000526020600020905b81548152906001019060200180831161074557829003601f168201915b50505050508152602001600282018054600181600116156101000203166002900480601f0160208091040260200160405190810160405280929190818152602001828054600181600116156101000203166002900480156108045780601f106107d957610100808354040283529160200191610804565b820191906000526020600020905b8154815290600101906020018083116107e757829003601f168201915b505050505081526020016003820160009054906101000a900460ff1660ff1660ff1681526020016003820160019054906101000a900460ff16600181111561084857fe5b600181111561085357fe5b8152602001600482018054600181600116156101000203166002900480601f0160208091040260200160405190810160405280929190818152602001828054600181600116156101000203166002900480156108f05780601f106108c5576101008083540402835291602001916108f0565b820191906000526020600020905b8154815290600101906020018083116108d357829003601f168201915b50505050508152505090508060200151816040015182606001518360a001518393508292508090509450945094509450509193509193565b828054600181600116156101000203166002900490600052602060002090601f016020900481019282601f1061096957805160ff1916838001178555610997565b82800160010185558215610997579182015b8281111561099657825182559160200191906001019061097b565b5b5090506109a491906109f0565b5090565b60c060405190810160405280600060ff1681526020016060815260200160608152602001600060ff168152602001600060018111156109e357fe5b8152602001606081525090565b610a1291905b80821115610a0e5760008160009055506001016109f6565b5090565b9056fea165627a7a7230582089df290b71f17546651625996c4c130b6aedaed8f4260bdaa550670a904f1c0a0029",
  "source": "pragma solidity 0.5.0;\r\n\r\ncontract TomatoMarket {\r\n\r\n    struct Tomato {\r\n        uint8 id;\r\n        string displayName;\r\n        string description;\r\n        uint8 price;\r\n        TomatoStatus status;\r\n        string photoHash;\r\n    }\r\n\r\n    uint8 tomatoCount;\r\n    uint8[] tomatoIds;\r\n    mapping (uint => Tomato) tomatoes;\r\n\r\n    enum TomatoStatus {\r\n        Fresh,\r\n        Rotten\r\n    }\r\n    event TomatoAdded (string message);\r\n\r\n    function getTomatoCount () public view returns (uint8) {\r\n        return tomatoCount;\r\n    }\r\n\r\n    function addTomato(string memory displayName, string memory description, uint8 price, TomatoStatus status, string memory photoHash) public {\r\n        tomatoes[tomatoCount] = Tomato(tomatoCount, displayName, description, price, status, photoHash);\r\n        tomatoIds.push(tomatoCount);\r\n        tomatoCount++;\r\n        emit TomatoAdded(\"Tomato Added\");\r\n    }\r\n\r\n    function getTomato(uint8 tomatoId) public view returns (string memory displayName, string memory description, uint8 price, string memory photoHash) {\r\n        Tomato memory currentTomato = tomatoes[tomatoId];\r\n        return (currentTomato.displayName, currentTomato.description, currentTomato.price, currentTomato.photoHash);\r\n    }\r\n\r\n}",
  "sourcePath": "C:/xampp/htdocs/Blockchain/tomatoShop/contracts/TomatoMarket.sol",
  "compiler": {
    "name": "solc",
    "version": "0.5.0+commit.1d4f565a.Emscripten.clang"
  },
  "schemaVersion": "3.0.0",
  "updatedAt": "2018-12-27T02:28:44.907Z",
  "devdoc": {
    "methods": {}
  },
  "userdoc": {
    "methods": {}
  }
}